{
  "contractName": "Voting",
  "abi": [
    {
      "anonymous": false,
      "inputs": [
        {
          "indexed": true,
          "internalType": "address",
          "name": "previousOwner",
          "type": "address"
        },
        {
          "indexed": true,
          "internalType": "address",
          "name": "newOwner",
          "type": "address"
        }
      ],
      "name": "OwnershipTransferred",
      "type": "event"
    },
    {
      "anonymous": false,
      "inputs": [
        {
          "indexed": false,
          "internalType": "uint256",
          "name": "proposalId",
          "type": "uint256"
        }
      ],
      "name": "ProposalRegistered",
      "type": "event"
    },
    {
      "anonymous": false,
      "inputs": [
        {
          "indexed": false,
          "internalType": "address",
          "name": "voter",
          "type": "address"
        },
        {
          "indexed": false,
          "internalType": "uint256",
          "name": "proposalId",
          "type": "uint256"
        }
      ],
      "name": "Voted",
      "type": "event"
    },
    {
      "anonymous": false,
      "inputs": [
        {
          "indexed": false,
          "internalType": "address",
          "name": "voterAddress",
          "type": "address"
        }
      ],
      "name": "VoterRegistered",
      "type": "event"
    },
    {
      "anonymous": false,
      "inputs": [
        {
          "indexed": false,
          "internalType": "enum Voting.WorkflowStatus",
          "name": "previousStatus",
          "type": "uint8"
        },
        {
          "indexed": false,
          "internalType": "enum Voting.WorkflowStatus",
          "name": "newStatus",
          "type": "uint8"
        }
      ],
      "name": "WorkflowStatusChange",
      "type": "event"
    },
    {
      "inputs": [],
      "name": "owner",
      "outputs": [
        {
          "internalType": "address",
          "name": "",
          "type": "address"
        }
      ],
      "stateMutability": "view",
      "type": "function",
      "constant": true
    },
    {
      "inputs": [],
      "name": "renounceOwnership",
      "outputs": [],
      "stateMutability": "nonpayable",
      "type": "function"
    },
    {
      "inputs": [
        {
          "internalType": "address",
          "name": "newOwner",
          "type": "address"
        }
      ],
      "name": "transferOwnership",
      "outputs": [],
      "stateMutability": "nonpayable",
      "type": "function"
    },
    {
      "inputs": [],
      "name": "winningProposalID",
      "outputs": [
        {
          "internalType": "uint256",
          "name": "",
          "type": "uint256"
        }
      ],
      "stateMutability": "view",
      "type": "function",
      "constant": true
    },
    {
      "inputs": [],
      "name": "workflowStatus",
      "outputs": [
        {
          "internalType": "enum Voting.WorkflowStatus",
          "name": "",
          "type": "uint8"
        }
      ],
      "stateMutability": "view",
      "type": "function",
      "constant": true
    },
    {
      "inputs": [
        {
          "internalType": "address",
          "name": "_addr",
          "type": "address"
        }
      ],
      "name": "getVoter",
      "outputs": [
        {
          "components": [
            {
              "internalType": "bool",
              "name": "isRegistered",
              "type": "bool"
            },
            {
              "internalType": "bool",
              "name": "hasVoted",
              "type": "bool"
            },
            {
              "internalType": "uint256",
              "name": "votedProposalId",
              "type": "uint256"
            }
          ],
          "internalType": "struct Voting.Voter",
          "name": "",
          "type": "tuple"
        }
      ],
      "stateMutability": "view",
      "type": "function",
      "constant": true
    },
    {
      "inputs": [
        {
          "internalType": "uint256",
          "name": "_id",
          "type": "uint256"
        }
      ],
      "name": "getOneProposal",
      "outputs": [
        {
          "components": [
            {
              "internalType": "string",
              "name": "description",
              "type": "string"
            },
            {
              "internalType": "uint256",
              "name": "voteCount",
              "type": "uint256"
            }
          ],
          "internalType": "struct Voting.Proposal",
          "name": "",
          "type": "tuple"
        }
      ],
      "stateMutability": "view",
      "type": "function",
      "constant": true
    },
    {
      "inputs": [
        {
          "internalType": "address",
          "name": "_addr",
          "type": "address"
        }
      ],
      "name": "addVoter",
      "outputs": [],
      "stateMutability": "nonpayable",
      "type": "function"
    },
    {
      "inputs": [
        {
          "internalType": "string",
          "name": "_desc",
          "type": "string"
        }
      ],
      "name": "addProposal",
      "outputs": [],
      "stateMutability": "nonpayable",
      "type": "function"
    },
    {
      "inputs": [
        {
          "internalType": "uint256",
          "name": "_id",
          "type": "uint256"
        }
      ],
      "name": "setVote",
      "outputs": [],
      "stateMutability": "nonpayable",
      "type": "function"
    },
    {
      "inputs": [],
      "name": "startProposalsRegistering",
      "outputs": [],
      "stateMutability": "nonpayable",
      "type": "function"
    },
    {
      "inputs": [],
      "name": "endProposalsRegistering",
      "outputs": [],
      "stateMutability": "nonpayable",
      "type": "function"
    },
    {
      "inputs": [],
      "name": "startVotingSession",
      "outputs": [],
      "stateMutability": "nonpayable",
      "type": "function"
    },
    {
      "inputs": [],
      "name": "endVotingSession",
      "outputs": [],
      "stateMutability": "nonpayable",
      "type": "function"
    },
    {
      "inputs": [],
      "name": "tallyVotes",
      "outputs": [],
      "stateMutability": "nonpayable",
      "type": "function"
    }
  ],
  "bytecode": "0x60806040523480156200001157600080fd5b5062000032620000266200003860201b60201c565b6200004060201b60201c565b62000104565b600033905090565b60008060009054906101000a900473ffffffffffffffffffffffffffffffffffffffff169050816000806101000a81548173ffffffffffffffffffffffffffffffffffffffff021916908373ffffffffffffffffffffffffffffffffffffffff1602179055508173ffffffffffffffffffffffffffffffffffffffff168173ffffffffffffffffffffffffffffffffffffffff167f8be0079c531659141344cd1fd0a4f28419497f9722a3daafe3b4186f6b6457e060405160405180910390a35050565b61250080620001146000396000f3fe608060405234801561001057600080fd5b50600436106100f55760003560e01c8063a7bfab1611610097578063d4f50f9811610066578063d4f50f98146101ee578063ee74c6781461021e578063f2fde38b14610228578063f4ab9adf14610244576100f5565b8063a7bfab16146101b2578063bdc01431146101bc578063c7038a4e146101da578063c88af42f146101e4576100f5565b8063715018a6116100d3578063715018a61461013c5780638da5cb5b14610146578063a1edffa214610164578063a2788cce14610182576100f5565b8063230796ae146100fa5780632fdae3c514610116578063378a217814610132575b600080fd5b610114600480360381019061010f91906113c9565b610260565b005b610130600480360381019061012b919061153c565b61055c565b005b61013a6107e1565b005b61014461094e565b005b61014e610962565b60405161015b91906115c6565b60405180910390f35b61016c61098b565b6040516101799190611658565b60405180910390f35b61019c600480360381019061019791906113c9565b61099e565b6040516101a99190611747565b60405180910390f35b6101ba610b05565b005b6101c4610beb565b6040516101d19190611778565b60405180910390f35b6101e2610bf1565b005b6101ec610cd7565b005b610208600480360381019061020391906117bf565b610dbc565b6040516102159190611849565b60405180910390f35b610226610ee4565b005b610242600480360381019061023d91906117bf565b610fca565b005b61025e600480360381019061025991906117bf565b61104d565b005b600460003373ffffffffffffffffffffffffffffffffffffffff1673ffffffffffffffffffffffffffffffffffffffff16815260200190815260200160002060000160009054906101000a900460ff166102ef576040517f08c379a00000000000000000000000000000000000000000000000000000000081526004016102e6906118c1565b60405180910390fd5b60036005811115610303576103026115e1565b5b600260009054906101000a900460ff166005811115610325576103246115e1565b5b14610365576040517f08c379a000000000000000000000000000000000000000000000000000000000815260040161035c90611953565b60405180910390fd5b60011515600460003373ffffffffffffffffffffffffffffffffffffffff1673ffffffffffffffffffffffffffffffffffffffff16815260200190815260200160002060000160019054906101000a900460ff161515036103fb576040517f08c379a00000000000000000000000000000000000000000000000000000000081526004016103f2906119bf565b60405180910390fd5b600380549050811115610443576040517f08c379a000000000000000000000000000000000000000000000000000000000815260040161043a90611a2b565b60405180910390fd5b80600460003373ffffffffffffffffffffffffffffffffffffffff1673ffffffffffffffffffffffffffffffffffffffff168152602001908152602001600020600101819055506001600460003373ffffffffffffffffffffffffffffffffffffffff1673ffffffffffffffffffffffffffffffffffffffff16815260200190815260200160002060000160016101000a81548160ff021916908315150217905550600381815481106104f9576104f8611a4b565b5b9060005260206000209060020201600101600081548092919061051b90611aa9565b91905055507f4d99b957a2bc29a30ebd96a7be8e68fe50a3c701db28a91436490b7d53870ca43382604051610551929190611af1565b60405180910390a150565b600460003373ffffffffffffffffffffffffffffffffffffffff1673ffffffffffffffffffffffffffffffffffffffff16815260200190815260200160002060000160009054906101000a900460ff166105eb576040517f08c379a00000000000000000000000000000000000000000000000000000000081526004016105e2906118c1565b60405180910390fd5b600160058111156105ff576105fe6115e1565b5b600260009054906101000a900460ff166005811115610621576106206115e1565b5b14610661576040517f08c379a000000000000000000000000000000000000000000000000000000000815260040161065890611b66565b60405180910390fd5b60405160200161067090611bac565b60405160208183030381529060405280519060200120816040516020016106979190611c05565b60405160208183030381529060405280519060200120036106ed576040517f08c379a00000000000000000000000000000000000000000000000000000000081526004016106e490611c99565b60405180910390fd5b6103e860038054905010610736576040517f08c379a000000000000000000000000000000000000000000000000000000000815260040161072d90611d2b565b60405180910390fd5b61073e611340565b818160000181905250600381908060018154018082558091505060019003906000526020600020906002020160009091909190915060008201518160000190816107889190611f57565b506020820151816001015550507f92e393e9b54e2f801d3ea4beb0c5e71a21cc34a5d34b77d0fb8a3aa1650dc18f60016003805490506107c89190612029565b6040516107d59190611778565b60405180910390a15050565b6107e96111f6565b600460058111156107fd576107fc6115e1565b5b600260009054906101000a900460ff16600581111561081f5761081e6115e1565b5b1461085f576040517f08c379a0000000000000000000000000000000000000000000000000000000008152600401610856906120cf565b60405180910390fd5b600080600090505b6003805490508110156108dd576003828154811061088857610887611a4b565b5b906000526020600020906002020160010154600382815481106108ae576108ad611a4b565b5b90600052602060002090600202016001015411156108ca578091505b80806108d590611aa9565b915050610867565b50806001819055506005600260006101000a81548160ff0219169083600581111561090b5761090a6115e1565b5b02179055507f0a97a4ee45751e2abf3e4fc8946939630b11b371ea8ae39ccdc3056e98f5cc3f600460056040516109439291906120ef565b60405180910390a150565b6109566111f6565b6109606000611274565b565b60008060009054906101000a900473ffffffffffffffffffffffffffffffffffffffff16905090565b600260009054906101000a900460ff1681565b6109a6611340565b600460003373ffffffffffffffffffffffffffffffffffffffff1673ffffffffffffffffffffffffffffffffffffffff16815260200190815260200160002060000160009054906101000a900460ff16610a35576040517f08c379a0000000000000000000000000000000000000000000000000000000008152600401610a2c906118c1565b60405180910390fd5b60038281548110610a4957610a48611a4b565b5b9060005260206000209060020201604051806040016040529081600082018054610a7290611d7a565b80601f0160208091040260200160405190810160405280929190818152602001828054610a9e90611d7a565b8015610aeb5780601f10610ac057610100808354040283529160200191610aeb565b820191906000526020600020905b815481529060010190602001808311610ace57829003601f168201915b505050505081526020016001820154815250509050919050565b610b0d6111f6565b60036005811115610b2157610b206115e1565b5b600260009054906101000a900460ff166005811115610b4357610b426115e1565b5b14610b83576040517f08c379a0000000000000000000000000000000000000000000000000000000008152600401610b7a90611953565b60405180910390fd5b6004600260006101000a81548160ff02191690836005811115610ba957610ba86115e1565b5b02179055507f0a97a4ee45751e2abf3e4fc8946939630b11b371ea8ae39ccdc3056e98f5cc3f60036004604051610be19291906120ef565b60405180910390a1565b60015481565b610bf96111f6565b60006005811115610c0d57610c0c6115e1565b5b600260009054906101000a900460ff166005811115610c2f57610c2e6115e1565b5b14610c6f576040517f08c379a0000000000000000000000000000000000000000000000000000000008152600401610c669061218a565b60405180910390fd5b6001600260006101000a81548160ff02191690836005811115610c9557610c946115e1565b5b02179055507f0a97a4ee45751e2abf3e4fc8946939630b11b371ea8ae39ccdc3056e98f5cc3f60006001604051610ccd9291906120ef565b60405180910390a1565b610cdf6111f6565b60016005811115610cf357610cf26115e1565b5b600260009054906101000a900460ff166005811115610d1557610d146115e1565b5b14610d55576040517f08c379a0000000000000000000000000000000000000000000000000000000008152600401610d4c9061221c565b60405180910390fd5b60028060006101000a81548160ff02191690836005811115610d7a57610d796115e1565b5b02179055507f0a97a4ee45751e2abf3e4fc8946939630b11b371ea8ae39ccdc3056e98f5cc3f60016002604051610db29291906120ef565b60405180910390a1565b610dc461135a565b600460003373ffffffffffffffffffffffffffffffffffffffff1673ffffffffffffffffffffffffffffffffffffffff16815260200190815260200160002060000160009054906101000a900460ff16610e53576040517f08c379a0000000000000000000000000000000000000000000000000000000008152600401610e4a906118c1565b60405180910390fd5b600460008373ffffffffffffffffffffffffffffffffffffffff1673ffffffffffffffffffffffffffffffffffffffff1681526020019081526020016000206040518060600160405290816000820160009054906101000a900460ff161515151581526020016000820160019054906101000a900460ff161515151581526020016001820154815250509050919050565b610eec6111f6565b60026005811115610f0057610eff6115e1565b5b600260009054906101000a900460ff166005811115610f2257610f216115e1565b5b14610f62576040517f08c379a0000000000000000000000000000000000000000000000000000000008152600401610f59906122ae565b60405180910390fd5b6003600260006101000a81548160ff02191690836005811115610f8857610f876115e1565b5b02179055507f0a97a4ee45751e2abf3e4fc8946939630b11b371ea8ae39ccdc3056e98f5cc3f60026003604051610fc09291906120ef565b60405180910390a1565b610fd26111f6565b600073ffffffffffffffffffffffffffffffffffffffff168173ffffffffffffffffffffffffffffffffffffffff1603611041576040517f08c379a000000000000000000000000000000000000000000000000000000000815260040161103890612340565b60405180910390fd5b61104a81611274565b50565b6110556111f6565b60006005811115611069576110686115e1565b5b600260009054906101000a900460ff16600581111561108b5761108a6115e1565b5b146110cb576040517f08c379a00000000000000000000000000000000000000000000000000000000081526004016110c2906123d2565b60405180910390fd5b60011515600460008373ffffffffffffffffffffffffffffffffffffffff1673ffffffffffffffffffffffffffffffffffffffff16815260200190815260200160002060000160009054906101000a900460ff16151503611161576040517f08c379a00000000000000000000000000000000000000000000000000000000081526004016111589061243e565b60405180910390fd5b6001600460008373ffffffffffffffffffffffffffffffffffffffff1673ffffffffffffffffffffffffffffffffffffffff16815260200190815260200160002060000160006101000a81548160ff0219169083151502179055507fb6be2187d059cc2a55fe29e0e503b566e1e0f8c8780096e185429350acffd3dd816040516111eb91906115c6565b60405180910390a150565b6111fe611338565b73ffffffffffffffffffffffffffffffffffffffff1661121c610962565b73ffffffffffffffffffffffffffffffffffffffff1614611272576040517f08c379a0000000000000000000000000000000000000000000000000000000008152600401611269906124aa565b60405180910390fd5b565b60008060009054906101000a900473ffffffffffffffffffffffffffffffffffffffff169050816000806101000a81548173ffffffffffffffffffffffffffffffffffffffff021916908373ffffffffffffffffffffffffffffffffffffffff1602179055508173ffffffffffffffffffffffffffffffffffffffff168173ffffffffffffffffffffffffffffffffffffffff167f8be0079c531659141344cd1fd0a4f28419497f9722a3daafe3b4186f6b6457e060405160405180910390a35050565b600033905090565b604051806040016040528060608152602001600081525090565b6040518060600160405280600015158152602001600015158152602001600081525090565b6000604051905090565b600080fd5b600080fd5b6000819050919050565b6113a681611393565b81146113b157600080fd5b50565b6000813590506113c38161139d565b92915050565b6000602082840312156113df576113de611389565b5b60006113ed848285016113b4565b91505092915050565b600080fd5b600080fd5b6000601f19601f8301169050919050565b7f4e487b7100000000000000000000000000000000000000000000000000000000600052604160045260246000fd5b61144982611400565b810181811067ffffffffffffffff8211171561146857611467611411565b5b80604052505050565b600061147b61137f565b90506114878282611440565b919050565b600067ffffffffffffffff8211156114a7576114a6611411565b5b6114b082611400565b9050602081019050919050565b82818337600083830152505050565b60006114df6114da8461148c565b611471565b9050828152602081018484840111156114fb576114fa6113fb565b5b6115068482856114bd565b509392505050565b600082601f830112611523576115226113f6565b5b81356115338482602086016114cc565b91505092915050565b60006020828403121561155257611551611389565b5b600082013567ffffffffffffffff8111156115705761156f61138e565b5b61157c8482850161150e565b91505092915050565b600073ffffffffffffffffffffffffffffffffffffffff82169050919050565b60006115b082611585565b9050919050565b6115c0816115a5565b82525050565b60006020820190506115db60008301846115b7565b92915050565b7f4e487b7100000000000000000000000000000000000000000000000000000000600052602160045260246000fd5b60068110611621576116206115e1565b5b50565b600081905061163282611610565b919050565b600061164282611624565b9050919050565b61165281611637565b82525050565b600060208201905061166d6000830184611649565b92915050565b600081519050919050565b600082825260208201905092915050565b60005b838110156116ad578082015181840152602081019050611692565b838111156116bc576000848401525b50505050565b60006116cd82611673565b6116d7818561167e565b93506116e781856020860161168f565b6116f081611400565b840191505092915050565b61170481611393565b82525050565b6000604083016000830151848203600086015261172782826116c2565b915050602083015161173c60208601826116fb565b508091505092915050565b60006020820190508181036000830152611761818461170a565b905092915050565b61177281611393565b82525050565b600060208201905061178d6000830184611769565b92915050565b61179c816115a5565b81146117a757600080fd5b50565b6000813590506117b981611793565b92915050565b6000602082840312156117d5576117d4611389565b5b60006117e3848285016117aa565b91505092915050565b60008115159050919050565b611801816117ec565b82525050565b60608201600082015161181d60008501826117f8565b50602082015161183060208501826117f8565b50604082015161184360408501826116fb565b50505050565b600060608201905061185e6000830184611807565b92915050565b600082825260208201905092915050565b7f596f75277265206e6f74206120766f7465720000000000000000000000000000600082015250565b60006118ab601283611864565b91506118b682611875565b602082019050919050565b600060208201905081810360008301526118da8161189e565b9050919050565b7f566f74696e672073657373696f6e20686176656e74207374617274656420796560008201527f7400000000000000000000000000000000000000000000000000000000000000602082015250565b600061193d602183611864565b9150611948826118e1565b604082019050919050565b6000602082019050818103600083015261196c81611930565b9050919050565b7f596f75206861766520616c726561647920766f74656400000000000000000000600082015250565b60006119a9601683611864565b91506119b482611973565b602082019050919050565b600060208201905081810360008301526119d88161199c565b9050919050565b7f50726f706f73616c206e6f7420666f756e640000000000000000000000000000600082015250565b6000611a15601283611864565b9150611a20826119df565b602082019050919050565b60006020820190508181036000830152611a4481611a08565b9050919050565b7f4e487b7100000000000000000000000000000000000000000000000000000000600052603260045260246000fd5b7f4e487b7100000000000000000000000000000000000000000000000000000000600052601160045260246000fd5b6000611ab482611393565b91507fffffffffffffffffffffffffffffffffffffffffffffffffffffffffffffffff8203611ae657611ae5611a7a565b5b600182019050919050565b6000604082019050611b0660008301856115b7565b611b136020830184611769565b9392505050565b7f50726f706f73616c7320617265206e6f7420616c6c6f77656420796574000000600082015250565b6000611b50601d83611864565b9150611b5b82611b1a565b602082019050919050565b60006020820190508181036000830152611b7f81611b43565b9050919050565b50565b6000611b96600083611864565b9150611ba182611b86565b600082019050919050565b60006020820190508181036000830152611bc581611b89565b9050919050565b6000611bd782611673565b611be18185611864565b9350611bf181856020860161168f565b611bfa81611400565b840191505092915050565b60006020820190508181036000830152611c1f8184611bcc565b905092915050565b7f566f7573206e6520706f7576657a20706173206e65207269656e2070726f706f60008201527f7365720000000000000000000000000000000000000000000000000000000000602082015250565b6000611c83602383611864565b9150611c8e82611c27565b604082019050919050565b60006020820190508181036000830152611cb281611c76565b9050919050565b7f546f6f206d7563682070726f706f73616c732068617665206265656e2061646460008201527f6564000000000000000000000000000000000000000000000000000000000000602082015250565b6000611d15602283611864565b9150611d2082611cb9565b604082019050919050565b60006020820190508181036000830152611d4481611d08565b9050919050565b7f4e487b7100000000000000000000000000000000000000000000000000000000600052602260045260246000fd5b60006002820490506001821680611d9257607f821691505b602082108103611da557611da4611d4b565b5b50919050565b60008190508160005260206000209050919050565b60006020601f8301049050919050565b600082821b905092915050565b600060088302611e0d7fffffffffffffffffffffffffffffffffffffffffffffffffffffffffffffffff82611dd0565b611e178683611dd0565b95508019841693508086168417925050509392505050565b6000819050919050565b6000611e54611e4f611e4a84611393565b611e2f565b611393565b9050919050565b6000819050919050565b611e6e83611e39565b611e82611e7a82611e5b565b848454611ddd565b825550505050565b600090565b611e97611e8a565b611ea2818484611e65565b505050565b5b81811015611ec657611ebb600082611e8f565b600181019050611ea8565b5050565b601f821115611f0b57611edc81611dab565b611ee584611dc0565b81016020851015611ef4578190505b611f08611f0085611dc0565b830182611ea7565b50505b505050565b600082821c905092915050565b6000611f2e60001984600802611f10565b1980831691505092915050565b6000611f478383611f1d565b9150826002028217905092915050565b611f6082611673565b67ffffffffffffffff811115611f7957611f78611411565b5b611f838254611d7a565b611f8e828285611eca565b600060209050601f831160018114611fc15760008415611faf578287015190505b611fb98582611f3b565b865550612021565b601f198416611fcf86611dab565b60005b82811015611ff757848901518255600182019150602085019450602081019050611fd2565b868310156120145784890151612010601f891682611f1d565b8355505b6001600288020188555050505b505050505050565b600061203482611393565b915061203f83611393565b92508282101561205257612051611a7a565b5b828203905092915050565b7f43757272656e7420737461747573206973206e6f7420766f74696e672073657360008201527f73696f6e20656e64656400000000000000000000000000000000000000000000602082015250565b60006120b9602a83611864565b91506120c48261205d565b604082019050919050565b600060208201905081810360008301526120e8816120ac565b9050919050565b60006040820190506121046000830185611649565b6121116020830184611649565b9392505050565b7f5265676973746572696e672070726f706f73616c732063616e7420626520737460008201527f6172746564206e6f770000000000000000000000000000000000000000000000602082015250565b6000612174602983611864565b915061217f82612118565b604082019050919050565b600060208201905081810360008301526121a381612167565b9050919050565b7f5265676973746572696e672070726f706f73616c7320686176656e742073746160008201527f7274656420796574000000000000000000000000000000000000000000000000602082015250565b6000612206602883611864565b9150612211826121aa565b604082019050919050565b60006020820190508181036000830152612235816121f9565b9050919050565b7f5265676973746572696e672070726f706f73616c73207068617365206973206e60008201527f6f742066696e6973686564000000000000000000000000000000000000000000602082015250565b6000612298602b83611864565b91506122a38261223c565b604082019050919050565b600060208201905081810360008301526122c78161228b565b9050919050565b7f4f776e61626c653a206e6577206f776e657220697320746865207a65726f206160008201527f6464726573730000000000000000000000000000000000000000000000000000602082015250565b600061232a602683611864565b9150612335826122ce565b604082019050919050565b600060208201905081810360008301526123598161231d565b9050919050565b7f566f7465727320726567697374726174696f6e206973206e6f74206f70656e2060008201527f7965740000000000000000000000000000000000000000000000000000000000602082015250565b60006123bc602383611864565b91506123c782612360565b604082019050919050565b600060208201905081810360008301526123eb816123af565b9050919050565b7f416c726561647920726567697374657265640000000000000000000000000000600082015250565b6000612428601283611864565b9150612433826123f2565b602082019050919050565b600060208201905081810360008301526124578161241b565b9050919050565b7f4f776e61626c653a2063616c6c6572206973206e6f7420746865206f776e6572600082015250565b6000612494602083611864565b915061249f8261245e565b602082019050919050565b600060208201905081810360008301526124c381612487565b905091905056fea2646970667358221220229944e9cf59ef187d3235df08686da0850757e393d7684ebb3b0059ef9d4cda64736f6c634300080f0033",
  "immutableReferences": {},
  "source": "// SPDX-License-Identifier: MIT\n\npragma solidity 0.8.15;\nimport \"../node_modules/@openzeppelin/contracts/access/Ownable.sol\";\n\ncontract Voting is Ownable {\n    uint256 public winningProposalID;\n\n    struct Voter {\n        bool isRegistered;\n        bool hasVoted;\n        uint256 votedProposalId;\n    }\n\n    struct Proposal {\n        string description;\n        uint256 voteCount;\n    }\n\n    enum WorkflowStatus {\n        RegisteringVoters,\n        ProposalsRegistrationStarted,\n        ProposalsRegistrationEnded,\n        VotingSessionStarted,\n        VotingSessionEnded,\n        VotesTallied\n    }\n\n    WorkflowStatus public workflowStatus;\n    Proposal[] proposalsArray;\n    mapping(address => Voter) voters;\n\n    event VoterRegistered(address voterAddress);\n    event WorkflowStatusChange(\n        WorkflowStatus previousStatus,\n        WorkflowStatus newStatus\n    );\n    event ProposalRegistered(uint256 proposalId);\n    event Voted(address voter, uint256 proposalId);\n\n    modifier onlyVoters() {\n        require(voters[msg.sender].isRegistered, \"You're not a voter\");\n        _;\n    }\n\n    // on peut faire un modifier pour les tats\n\n    // ::::::::::::: GETTERS ::::::::::::: //\n\n    function getVoter(address _addr)\n        external\n        view\n        onlyVoters\n        returns (Voter memory)\n    {\n        return voters[_addr];\n    }\n\n    function getOneProposal(uint256 _id)\n        external\n        view\n        onlyVoters\n        returns (Proposal memory)\n    {\n        return proposalsArray[_id];\n    }\n\n    // ::::::::::::: REGISTRATION ::::::::::::: //\n\n    function addVoter(address _addr) external onlyOwner {\n        require(\n            workflowStatus == WorkflowStatus.RegisteringVoters,\n            \"Voters registration is not open yet\"\n        );\n        require(voters[_addr].isRegistered != true, \"Already registered\");\n\n        voters[_addr].isRegistered = true;\n        emit VoterRegistered(_addr);\n    }\n\n    // ::::::::::::: PROPOSAL ::::::::::::: //\n\n    function addProposal(string memory _desc) external onlyVoters {\n        require(\n            workflowStatus == WorkflowStatus.ProposalsRegistrationStarted,\n            \"Proposals are not allowed yet\"\n        );\n        require(\n            keccak256(abi.encode(_desc)) != keccak256(abi.encode(\"\")),\n            \"Vous ne pouvez pas ne rien proposer\"\n        ); // facultatif\n        // Limit the number of proposal\n        require(\n            proposalsArray.length < 1000,\n            \"Too much proposals have been added\"\n        );\n\n        Proposal memory proposal;\n        proposal.description = _desc;\n        proposalsArray.push(proposal);\n        emit ProposalRegistered(proposalsArray.length - 1);\n    }\n\n    // ::::::::::::: VOTE ::::::::::::: //\n\n    function setVote(uint256 _id) external onlyVoters {\n        require(\n            workflowStatus == WorkflowStatus.VotingSessionStarted,\n            \"Voting session havent started yet\"\n        );\n        require(voters[msg.sender].hasVoted != true, \"You have already voted\");\n        require(_id <= proposalsArray.length, \"Proposal not found\"); // pas oblig, et pas besoin du >0 car uint\n\n        voters[msg.sender].votedProposalId = _id;\n        voters[msg.sender].hasVoted = true;\n        proposalsArray[_id].voteCount++;\n\n        emit Voted(msg.sender, _id);\n    }\n\n    // ::::::::::::: STATE ::::::::::::: //\n\n    function startProposalsRegistering() external onlyOwner {\n        require(\n            workflowStatus == WorkflowStatus.RegisteringVoters,\n            \"Registering proposals cant be started now\"\n        );\n        workflowStatus = WorkflowStatus.ProposalsRegistrationStarted;\n        emit WorkflowStatusChange(\n            WorkflowStatus.RegisteringVoters,\n            WorkflowStatus.ProposalsRegistrationStarted\n        );\n    }\n\n    function endProposalsRegistering() external onlyOwner {\n        require(\n            workflowStatus == WorkflowStatus.ProposalsRegistrationStarted,\n            \"Registering proposals havent started yet\"\n        );\n        workflowStatus = WorkflowStatus.ProposalsRegistrationEnded;\n        emit WorkflowStatusChange(\n            WorkflowStatus.ProposalsRegistrationStarted,\n            WorkflowStatus.ProposalsRegistrationEnded\n        );\n    }\n\n    function startVotingSession() external onlyOwner {\n        require(\n            workflowStatus == WorkflowStatus.ProposalsRegistrationEnded,\n            \"Registering proposals phase is not finished\"\n        );\n        workflowStatus = WorkflowStatus.VotingSessionStarted;\n        emit WorkflowStatusChange(\n            WorkflowStatus.ProposalsRegistrationEnded,\n            WorkflowStatus.VotingSessionStarted\n        );\n    }\n\n    function endVotingSession() external onlyOwner {\n        require(\n            workflowStatus == WorkflowStatus.VotingSessionStarted,\n            \"Voting session havent started yet\"\n        );\n        workflowStatus = WorkflowStatus.VotingSessionEnded;\n        emit WorkflowStatusChange(\n            WorkflowStatus.VotingSessionStarted,\n            WorkflowStatus.VotingSessionEnded\n        );\n    }\n\n    function tallyVotes() external onlyOwner {\n        require(\n            workflowStatus == WorkflowStatus.VotingSessionEnded,\n            \"Current status is not voting session ended\"\n        );\n        uint256 _winningProposalId;\n        for (uint256 p = 0; p < proposalsArray.length; p++) {\n            if (\n                proposalsArray[p].voteCount >\n                proposalsArray[_winningProposalId].voteCount\n            ) {\n                _winningProposalId = p;\n            }\n        }\n        winningProposalID = _winningProposalId;\n\n        workflowStatus = WorkflowStatus.VotesTallied;\n        emit WorkflowStatusChange(\n            WorkflowStatus.VotingSessionEnded,\n            WorkflowStatus.VotesTallied\n        );\n    }\n}",
  "sourcePath": "/home/clement/alyra/Dapp_project3/truffle/contracts/Voting.sol",
  "compiler": {
    "name": "solc",
    "version": "0.8.15+commit.e14f2714.Emscripten.clang"
  },
  "schemaVersion": "3.4.8",
  "updatedAt": "2022-07-17T13:55:37.152Z",
  "networkType": "ethereum",
  "devdoc": {
    "kind": "dev",
    "methods": {
      "owner()": {
        "details": "Returns the address of the current owner."
      },
      "renounceOwnership()": {
        "details": "Leaves the contract without owner. It will not be possible to call `onlyOwner` functions anymore. Can only be called by the current owner. NOTE: Renouncing ownership will leave the contract without an owner, thereby removing any functionality that is only available to the owner."
      },
      "transferOwnership(address)": {
        "details": "Transfers ownership of the contract to a new account (`newOwner`). Can only be called by the current owner."
      }
    },
    "version": 1
  },
  "userdoc": {
    "kind": "user",
    "methods": {},
    "version": 1
  }
}